{
  "_format": "hh-sol-artifact-1",
  "contractName": "ChainlinkGiftCardManager",
  "sourceName": "contracts/ChainlinkGiftCardManager.sol",
  "abi": [
    {
      "inputs": [
        {
          "internalType": "address",
          "name": "_marketContract",
          "type": "address"
        },
        {
          "internalType": "address",
          "name": "_giftCardContract",
          "type": "address"
        },
        {
          "internalType": "address",
          "name": "_router",
          "type": "address"
        },
        {
          "internalType": "bytes32",
          "name": "_donId",
          "type": "bytes32"
        },
        {
          "internalType": "uint64",
          "name": "_subscriptionId",
          "type": "uint64"
        }
      ],
      "stateMutability": "nonpayable",
      "type": "constructor"
    },
    {
      "inputs": [],
      "name": "AccessControlBadConfirmation",
      "type": "error"
    },
    {
      "inputs": [
        {
          "internalType": "address",
          "name": "account",
          "type": "address"
        },
        {
          "internalType": "bytes32",
          "name": "neededRole",
          "type": "bytes32"
        }
      ],
      "name": "AccessControlUnauthorizedAccount",
      "type": "error"
    },
    {
      "inputs": [],
      "name": "EmptyArgs",
      "type": "error"
    },
    {
      "inputs": [],
      "name": "EmptyResponse",
      "type": "error"
    },
    {
      "inputs": [],
      "name": "EmptySource",
      "type": "error"
    },
    {
      "inputs": [],
      "name": "EnforcedPause",
      "type": "error"
    },
    {
      "inputs": [],
      "name": "ExpectedPause",
      "type": "error"
    },
    {
      "inputs": [
        {
          "internalType": "string",
          "name": "category",
          "type": "string"
        }
      ],
      "name": "InvalidCategory",
      "type": "error"
    },
    {
      "inputs": [],
      "name": "NoInlineSecrets",
      "type": "error"
    },
    {
      "inputs": [],
      "name": "OnlyRouterCanFulfill",
      "type": "error"
    },
    {
      "inputs": [],
      "name": "ReentrancyGuardReentrantCall",
      "type": "error"
    },
    {
      "inputs": [
        {
          "internalType": "bytes32",
          "name": "requestId",
          "type": "bytes32"
        }
      ],
      "name": "RequestAlreadyFulfilled",
      "type": "error"
    },
    {
      "inputs": [
        {
          "internalType": "bytes32",
          "name": "requestId",
          "type": "bytes32"
        }
      ],
      "name": "RequestNotFound",
      "type": "error"
    },
    {
      "inputs": [
        {
          "internalType": "uint256",
          "name": "threshold",
          "type": "uint256"
        }
      ],
      "name": "ThresholdTooLow",
      "type": "error"
    },
    {
      "inputs": [
        {
          "internalType": "address",
          "name": "sender",
          "type": "address"
        }
      ],
      "name": "UnauthorizedFulfillment",
      "type": "error"
    },
    {
      "anonymous": false,
      "inputs": [
        {
          "indexed": false,
          "internalType": "string",
          "name": "category",
          "type": "string"
        },
        {
          "indexed": false,
          "internalType": "uint256",
          "name": "threshold",
          "type": "uint256"
        }
      ],
      "name": "CategoryAdded",
      "type": "event"
    },
    {
      "anonymous": false,
      "inputs": [
        {
          "indexed": false,
          "internalType": "string",
          "name": "category",
          "type": "string"
        },
        {
          "indexed": false,
          "internalType": "uint256",
          "name": "threshold",
          "type": "uint256"
        }
      ],
      "name": "CategoryUpdated",
      "type": "event"
    },
    {
      "anonymous": false,
      "inputs": [
        {
          "indexed": false,
          "internalType": "bytes32",
          "name": "donId",
          "type": "bytes32"
        },
        {
          "indexed": false,
          "internalType": "uint64",
          "name": "subscriptionId",
          "type": "uint64"
        },
        {
          "indexed": false,
          "internalType": "uint32",
          "name": "gasLimit",
          "type": "uint32"
        }
      ],
      "name": "ChainlinkFunctionUpdated",
      "type": "event"
    },
    {
      "anonymous": false,
      "inputs": [
        {
          "indexed": true,
          "internalType": "uint256",
          "name": "cardId",
          "type": "uint256"
        },
        {
          "indexed": false,
          "internalType": "string",
          "name": "category",
          "type": "string"
        },
        {
          "indexed": false,
          "internalType": "address",
          "name": "creator",
          "type": "address"
        }
      ],
      "name": "GiftCardAdded",
      "type": "event"
    },
    {
      "anonymous": false,
      "inputs": [
        {
          "indexed": false,
          "internalType": "string",
          "name": "category",
          "type": "string"
        },
        {
          "indexed": false,
          "internalType": "uint256",
          "name": "newCount",
          "type": "uint256"
        }
      ],
      "name": "InventoryUpdated",
      "type": "event"
    },
    {
      "anonymous": false,
      "inputs": [
        {
          "indexed": false,
          "internalType": "address",
          "name": "account",
          "type": "address"
        }
      ],
      "name": "Paused",
      "type": "event"
    },
    {
      "anonymous": false,
      "inputs": [
        {
          "indexed": true,
          "internalType": "bytes32",
          "name": "id",
          "type": "bytes32"
        }
      ],
      "name": "RequestFulfilled",
      "type": "event"
    },
    {
      "anonymous": false,
      "inputs": [
        {
          "indexed": true,
          "internalType": "bytes32",
          "name": "id",
          "type": "bytes32"
        }
      ],
      "name": "RequestSent",
      "type": "event"
    },
    {
      "anonymous": false,
      "inputs": [
        {
          "indexed": true,
          "internalType": "bytes32",
          "name": "requestId",
          "type": "bytes32"
        },
        {
          "indexed": false,
          "internalType": "string",
          "name": "category",
          "type": "string"
        },
        {
          "indexed": false,
          "internalType": "bytes",
          "name": "response",
          "type": "bytes"
        }
      ],
      "name": "RestockFulfilled",
      "type": "event"
    },
    {
      "anonymous": false,
      "inputs": [
        {
          "indexed": true,
          "internalType": "bytes32",
          "name": "requestId",
          "type": "bytes32"
        },
        {
          "indexed": false,
          "internalType": "string",
          "name": "category",
          "type": "string"
        }
      ],
      "name": "RestockRequested",
      "type": "event"
    },
    {
      "anonymous": false,
      "inputs": [
        {
          "indexed": true,
          "internalType": "bytes32",
          "name": "role",
          "type": "bytes32"
        },
        {
          "indexed": true,
          "internalType": "bytes32",
          "name": "previousAdminRole",
          "type": "bytes32"
        },
        {
          "indexed": true,
          "internalType": "bytes32",
          "name": "newAdminRole",
          "type": "bytes32"
        }
      ],
      "name": "RoleAdminChanged",
      "type": "event"
    },
    {
      "anonymous": false,
      "inputs": [
        {
          "indexed": true,
          "internalType": "bytes32",
          "name": "role",
          "type": "bytes32"
        },
        {
          "indexed": true,
          "internalType": "address",
          "name": "account",
          "type": "address"
        },
        {
          "indexed": true,
          "internalType": "address",
          "name": "sender",
          "type": "address"
        }
      ],
      "name": "RoleGranted",
      "type": "event"
    },
    {
      "anonymous": false,
      "inputs": [
        {
          "indexed": true,
          "internalType": "bytes32",
          "name": "role",
          "type": "bytes32"
        },
        {
          "indexed": true,
          "internalType": "address",
          "name": "account",
          "type": "address"
        },
        {
          "indexed": true,
          "internalType": "address",
          "name": "sender",
          "type": "address"
        }
      ],
      "name": "RoleRevoked",
      "type": "event"
    },
    {
      "anonymous": false,
      "inputs": [
        {
          "indexed": false,
          "internalType": "address",
          "name": "account",
          "type": "address"
        }
      ],
      "name": "Unpaused",
      "type": "event"
    },
    {
      "inputs": [],
      "name": "ADMIN_ROLE",
      "outputs": [
        {
          "internalType": "bytes32",
          "name": "",
          "type": "bytes32"
        }
      ],
      "stateMutability": "view",
      "type": "function"
    },
    {
      "inputs": [],
      "name": "BACKEND_ROLE",
      "outputs": [
        {
          "internalType": "bytes32",
          "name": "",
          "type": "bytes32"
        }
      ],
      "stateMutability": "view",
      "type": "function"
    },
    {
      "inputs": [],
      "name": "DEFAULT_ADMIN_ROLE",
      "outputs": [
        {
          "internalType": "bytes32",
          "name": "",
          "type": "bytes32"
        }
      ],
      "stateMutability": "view",
      "type": "function"
    },
    {
      "inputs": [
        {
          "internalType": "string",
          "name": "category",
          "type": "string"
        },
        {
          "internalType": "uint256",
          "name": "threshold",
          "type": "uint256"
        }
      ],
      "name": "addCategory",
      "outputs": [],
      "stateMutability": "nonpayable",
      "type": "function"
    },
    {
      "inputs": [
        {
          "internalType": "bytes",
          "name": "valueInput",
          "type": "bytes"
        },
        {
          "internalType": "string",
          "name": "description",
          "type": "string"
        },
        {
          "internalType": "string",
          "name": "imageUrl",
          "type": "string"
        },
        {
          "internalType": "uint256",
          "name": "expiryDate",
          "type": "uint256"
        },
        {
          "internalType": "string",
          "name": "category",
          "type": "string"
        }
      ],
      "name": "addGiftCard",
      "outputs": [
        {
          "internalType": "uint256",
          "name": "cardId",
          "type": "uint256"
        }
      ],
      "stateMutability": "nonpayable",
      "type": "function"
    },
    {
      "inputs": [
        {
          "internalType": "bytes",
          "name": "valueInput",
          "type": "bytes"
        },
        {
          "internalType": "string",
          "name": "description",
          "type": "string"
        },
        {
          "internalType": "string",
          "name": "imageUrl",
          "type": "string"
        },
        {
          "internalType": "uint256",
          "name": "expiryDate",
          "type": "uint256"
        },
        {
          "internalType": "string",
          "name": "category",
          "type": "string"
        }
      ],
      "name": "backendAddGiftCard",
      "outputs": [
        {
          "internalType": "uint256",
          "name": "cardId",
          "type": "uint256"
        }
      ],
      "stateMutability": "nonpayable",
      "type": "function"
    },
    {
      "inputs": [
        {
          "internalType": "uint256",
          "name": "",
          "type": "uint256"
        }
      ],
      "name": "categories",
      "outputs": [
        {
          "internalType": "string",
          "name": "",
          "type": "string"
        }
      ],
      "stateMutability": "view",
      "type": "function"
    },
    {
      "inputs": [
        {
          "internalType": "string",
          "name": "",
          "type": "string"
        }
      ],
      "name": "categoryInventory",
      "outputs": [
        {
          "internalType": "string",
          "name": "name",
          "type": "string"
        },
        {
          "internalType": "uint256",
          "name": "count",
          "type": "uint256"
        },
        {
          "internalType": "uint256",
          "name": "threshold",
          "type": "uint256"
        },
        {
          "internalType": "bool",
          "name": "active",
          "type": "bool"
        }
      ],
      "stateMutability": "view",
      "type": "function"
    },
    {
      "inputs": [
        {
          "internalType": "bytes32",
          "name": "",
          "type": "bytes32"
        }
      ],
      "name": "chainlinkRequests",
      "outputs": [
        {
          "internalType": "bytes32",
          "name": "requestId",
          "type": "bytes32"
        },
        {
          "internalType": "string",
          "name": "category",
          "type": "string"
        },
        {
          "internalType": "uint256",
          "name": "timestamp",
          "type": "uint256"
        },
        {
          "internalType": "bool",
          "name": "fulfilled",
          "type": "bool"
        }
      ],
      "stateMutability": "view",
      "type": "function"
    },
    {
      "inputs": [
        {
          "internalType": "string",
          "name": "category",
          "type": "string"
        }
      ],
      "name": "checkAndTriggerRestock",
      "outputs": [],
      "stateMutability": "nonpayable",
      "type": "function"
    },
    {
      "inputs": [
        {
          "internalType": "string",
          "name": "category",
          "type": "string"
        }
      ],
      "name": "decreaseInventory",
      "outputs": [],
      "stateMutability": "nonpayable",
      "type": "function"
    },
    {
      "inputs": [],
      "name": "getAllCategories",
      "outputs": [
        {
          "internalType": "string[]",
          "name": "",
          "type": "string[]"
        }
      ],
      "stateMutability": "view",
      "type": "function"
    },
    {
      "inputs": [
        {
          "internalType": "string",
          "name": "category",
          "type": "string"
        }
      ],
      "name": "getCategoryDetails",
      "outputs": [
        {
          "components": [
            {
              "internalType": "string",
              "name": "name",
              "type": "string"
            },
            {
              "internalType": "uint256",
              "name": "count",
              "type": "uint256"
            },
            {
              "internalType": "uint256",
              "name": "threshold",
              "type": "uint256"
            },
            {
              "internalType": "bool",
              "name": "active",
              "type": "bool"
            }
          ],
          "internalType": "struct ChainlinkGiftCardManager.CategoryInventory",
          "name": "",
          "type": "tuple"
        }
      ],
      "stateMutability": "view",
      "type": "function"
    },
    {
      "inputs": [
        {
          "internalType": "string",
          "name": "category",
          "type": "string"
        }
      ],
      "name": "getInventoryCount",
      "outputs": [
        {
          "internalType": "uint256",
          "name": "",
          "type": "uint256"
        }
      ],
      "stateMutability": "view",
      "type": "function"
    },
    {
      "inputs": [],
      "name": "getPendingRequestCount",
      "outputs": [
        {
          "internalType": "uint256",
          "name": "",
          "type": "uint256"
        }
      ],
      "stateMutability": "view",
      "type": "function"
    },
    {
      "inputs": [
        {
          "internalType": "bytes32",
          "name": "requestId",
          "type": "bytes32"
        }
      ],
      "name": "getRequestDetails",
      "outputs": [
        {
          "components": [
            {
              "internalType": "bytes32",
              "name": "requestId",
              "type": "bytes32"
            },
            {
              "internalType": "string",
              "name": "category",
              "type": "string"
            },
            {
              "internalType": "uint256",
              "name": "timestamp",
              "type": "uint256"
            },
            {
              "internalType": "bool",
              "name": "fulfilled",
              "type": "bool"
            }
          ],
          "internalType": "struct ChainlinkGiftCardManager.ChainlinkRequest",
          "name": "",
          "type": "tuple"
        }
      ],
      "stateMutability": "view",
      "type": "function"
    },
    {
      "inputs": [
        {
          "internalType": "bytes32",
          "name": "role",
          "type": "bytes32"
        }
      ],
      "name": "getRoleAdmin",
      "outputs": [
        {
          "internalType": "bytes32",
          "name": "",
          "type": "bytes32"
        }
      ],
      "stateMutability": "view",
      "type": "function"
    },
    {
      "inputs": [],
      "name": "giftCardContract",
      "outputs": [
        {
          "internalType": "contract ConfidentialGiftCard",
          "name": "",
          "type": "address"
        }
      ],
      "stateMutability": "view",
      "type": "function"
    },
    {
      "inputs": [
        {
          "internalType": "address",
          "name": "account",
          "type": "address"
        }
      ],
      "name": "grantBackendRole",
      "outputs": [],
      "stateMutability": "nonpayable",
      "type": "function"
    },
    {
      "inputs": [
        {
          "internalType": "bytes32",
          "name": "role",
          "type": "bytes32"
        },
        {
          "internalType": "address",
          "name": "account",
          "type": "address"
        }
      ],
      "name": "grantRole",
      "outputs": [],
      "stateMutability": "nonpayable",
      "type": "function"
    },
    {
      "inputs": [
        {
          "internalType": "bytes32",
          "name": "requestId",
          "type": "bytes32"
        },
        {
          "internalType": "bytes",
          "name": "response",
          "type": "bytes"
        },
        {
          "internalType": "bytes",
          "name": "err",
          "type": "bytes"
        }
      ],
      "name": "handleOracleFulfillment",
      "outputs": [],
      "stateMutability": "nonpayable",
      "type": "function"
    },
    {
      "inputs": [
        {
          "internalType": "bytes32",
          "name": "role",
          "type": "bytes32"
        },
        {
          "internalType": "address",
          "name": "account",
          "type": "address"
        }
      ],
      "name": "hasRole",
      "outputs": [
        {
          "internalType": "bool",
          "name": "",
          "type": "bool"
        }
      ],
      "stateMutability": "view",
      "type": "function"
    },
    {
      "inputs": [
        {
          "internalType": "string",
          "name": "category",
          "type": "string"
        }
      ],
      "name": "manualRestock",
      "outputs": [
        {
          "internalType": "bytes32",
          "name": "requestId",
          "type": "bytes32"
        }
      ],
      "stateMutability": "nonpayable",
      "type": "function"
    },
    {
      "inputs": [],
      "name": "marketContract",
      "outputs": [
        {
          "internalType": "contract DGMarketCore",
          "name": "",
          "type": "address"
        }
      ],
      "stateMutability": "view",
      "type": "function"
    },
    {
      "inputs": [],
      "name": "pause",
      "outputs": [],
      "stateMutability": "nonpayable",
      "type": "function"
    },
    {
      "inputs": [],
      "name": "paused",
      "outputs": [
        {
          "internalType": "bool",
          "name": "",
          "type": "bool"
        }
      ],
      "stateMutability": "view",
      "type": "function"
    },
    {
      "inputs": [
        {
          "internalType": "uint256",
          "name": "",
          "type": "uint256"
        }
      ],
      "name": "pendingRequests",
      "outputs": [
        {
          "internalType": "bytes32",
          "name": "",
          "type": "bytes32"
        }
      ],
      "stateMutability": "view",
      "type": "function"
    },
    {
      "inputs": [
        {
          "internalType": "bytes32",
          "name": "role",
          "type": "bytes32"
        },
        {
          "internalType": "address",
          "name": "callerConfirmation",
          "type": "address"
        }
      ],
      "name": "renounceRole",
      "outputs": [],
      "stateMutability": "nonpayable",
      "type": "function"
    },
    {
      "inputs": [
        {
          "internalType": "string",
          "name": "category",
          "type": "string"
        }
      ],
      "name": "requestRestockFromAPI",
      "outputs": [
        {
          "internalType": "bytes32",
          "name": "requestId",
          "type": "bytes32"
        }
      ],
      "stateMutability": "nonpayable",
      "type": "function"
    },
    {
      "inputs": [
        {
          "internalType": "address",
          "name": "account",
          "type": "address"
        }
      ],
      "name": "revokeBackendRole",
      "outputs": [],
      "stateMutability": "nonpayable",
      "type": "function"
    },
    {
      "inputs": [
        {
          "internalType": "bytes32",
          "name": "role",
          "type": "bytes32"
        },
        {
          "internalType": "address",
          "name": "account",
          "type": "address"
        }
      ],
      "name": "revokeRole",
      "outputs": [],
      "stateMutability": "nonpayable",
      "type": "function"
    },
    {
      "inputs": [
        {
          "internalType": "bytes4",
          "name": "interfaceId",
          "type": "bytes4"
        }
      ],
      "name": "supportsInterface",
      "outputs": [
        {
          "internalType": "bool",
          "name": "",
          "type": "bool"
        }
      ],
      "stateMutability": "view",
      "type": "function"
    },
    {
      "inputs": [],
      "name": "unpause",
      "outputs": [],
      "stateMutability": "nonpayable",
      "type": "function"
    },
    {
      "inputs": [
        {
          "internalType": "string",
          "name": "category",
          "type": "string"
        },
        {
          "internalType": "uint256",
          "name": "threshold",
          "type": "uint256"
        }
      ],
      "name": "updateCategoryThreshold",
      "outputs": [],
      "stateMutability": "nonpayable",
      "type": "function"
    },
    {
      "inputs": [
        {
          "internalType": "bytes32",
          "name": "_donId",
          "type": "bytes32"
        },
        {
          "internalType": "uint64",
          "name": "_subscriptionId",
          "type": "uint64"
        },
        {
          "internalType": "uint32",
          "name": "_gasLimit",
          "type": "uint32"
        }
      ],
      "name": "updateChainlinkConfig",
      "outputs": [],
      "stateMutability": "nonpayable",
      "type": "function"
    }
  ],
  "bytecode": "0x60e060405234801561000f575f5ffd5b5060405161346238038061346283398101604081905261002e9161025b565b60016002556001600160a01b0380841660805285166100945760405162461bcd60e51b815260206004820152601760248201527f496e76616c6964206d61726b657420636f6e747261637400000000000000000060448201526064015b60405180910390fd5b6001600160a01b0384166100ea5760405162461bcd60e51b815260206004820152601a60248201527f496e76616c69642067696674206361726420636f6e7472616374000000000000604482015260640161008b565b6001600160a01b0380861660a052841660c0526003829055600480546a0493e000000000000000006001600160601b03199091166001600160401b038416171790556101365f33610197565b506101617fa49807205ce4d355092ef5a8a18f56e8913cf4a201fbe287825b095693c2177533610197565b5061018c7f25cf2b509f2a7f322675b2a5322b182f44ad2c03ac941a0af17c9b178f5d5d5f30610197565b5050505050506102c5565b5f828152602081815260408083206001600160a01b038516845290915281205460ff16610237575f838152602081815260408083206001600160a01b03861684529091529020805460ff191660011790556101ef3390565b6001600160a01b0316826001600160a01b0316847f2f8788117e7eff1d82e926ec794901d17c78024a50270940304540a733656f0d60405160405180910390a450600161023a565b505f5b92915050565b80516001600160a01b0381168114610256575f5ffd5b919050565b5f5f5f5f5f60a0868803121561026f575f5ffd5b61027886610240565b945061028660208701610240565b935061029460408701610240565b6060870151608088015191945092506001600160401b03811681146102b7575f5ffd5b809150509295509295909350565b60805160a05160c05161315e6103045f395f81816102f001528181610b9501526112fc01525f6103ce01525f81816107c80152611e07015261315e5ff3fe608060405234801561000f575f5ffd5b5060043610610208575f3560e01c806391d148541161011f578063c6cdbe5e116100a9578063e4b1a79511610079578063e4b1a795146104b3578063e920cfd6146104d3578063f3a4933d146104e6578063f52f836d146104f9578063fee1938f1461050c575f5ffd5b8063c6cdbe5e14610458578063d547741f14610478578063dadd0a571461048b578063dfba1fd6146104a0575f5ffd5b8063a6f15bec116100ef578063a6f15bec146103f7578063ac21538a1461040a578063b95283fa1461041d578063bc0ed30d1461043d578063c226ad9714610445575f5ffd5b806391d14854146103a257806392c2becc146103b5578063a1794bcd146103c9578063a217fddf146103f0575f5ffd5b80633f4ba83a116101a05780636b8f14aa116101705780636b8f14aa1461034d5780637035dba11461036057806375b238fc146103735780638456cb591461038757806384ef445c1461038f575f5ffd5b80633f4ba83a146102d85780635c975abb146102e05780635d1fe172146102eb5780636100461d1461032a575f5ffd5b80632f2ff15d116101db5780632f2ff15d1461028c57806336568abe1461029f578063393f596e146102b25780633c652a9a146102c5575f5ffd5b806301ffc9a71461020c578063035502f2146102345780630ca7617514610249578063248a9ca31461025c575b5f5ffd5b61021f61021a366004612434565b61052f565b60405190151581526020015b60405180910390f35b61024761024236600461249f565b610565565b005b61024761025736600461258d565b6107bd565b61027e61026a3660046125f8565b5f9081526020819052604090206001015490565b60405190815260200161022b565b61024761029a366004612625565b610840565b6102476102ad366004612625565b61086a565b6102476102c036600461264f565b6108a2565b61027e6102d33660046125f8565b61093c565b61024761095b565b60015460ff1661021f565b6103127f000000000000000000000000000000000000000000000000000000000000000081565b6040516001600160a01b03909116815260200161022b565b61033d6103383660046125f8565b61097d565b60405161022b94939291906126cf565b61024761035b36600461249f565b610a2f565b61027e61036e3660046126ff565b610b0d565b61027e5f5160206131095f395f51905f5281565b610247610cfa565b61027e61039d3660046127cd565b610d19565b61021f6103b0366004612625565b610d46565b61027e5f516020612f4e5f395f51905f5281565b6103127f000000000000000000000000000000000000000000000000000000000000000081565b61027e5f81565b61027e61040536600461280b565b610d6e565b61024761041836600461284f565b610f85565b61043061042b3660046127cd565b610fa6565b60405161022b9190612868565b60085461027e565b61024761045336600461284f565b6110b5565b61046b6104663660046125f8565b6110d6565b60405161022b91906128af565b610247610486366004612625565b61117c565b6104936111a0565b60405161022b91906128c1565b61027e6104ae3660046126ff565b611274565b6104c66104c13660046125f8565b6113e7565b60405161022b9190612924565b6102476104e136600461280b565b6114e6565b61027e6104f43660046127cd565b611536565b6102476105073660046127cd565b611594565b61051f61051a36600461280b565b6116ee565b60405161022b949392919061296b565b5f6001600160e01b03198216637965db0b60e01b148061055f57506301ffc9a760e01b6001600160e01b03198316145b92915050565b5f5160206131095f395f51905f5261057c816117ac565b826105c45760405162461bcd60e51b8152602060048201526013602482015272456d7074792063617465676f7279206e616d6560681b60448201526064015b60405180910390fd5b5f82116106135760405162461bcd60e51b815260206004820152601a60248201527f5468726573686f6c64206d75737420626520706f73697469766500000000000060448201526064016105bb565b6005848460405161062592919061299b565b9081526040519081900360200190206003015460ff16156106885760405162461bcd60e51b815260206004820152601760248201527f43617465676f727920616c72656164792065786973747300000000000000000060448201526064016105bb565b604051806080016040528085858080601f0160208091040260200160405190810160405280939291908181526020018383808284375f920182905250938552505050602082015260408082018590526001606090920191909152516005906106f3908790879061299b565b908152604051908190036020019020815181906107109082612a2d565b506020820151600182810191909155604083015160028301556060909201516003909101805460ff19169115159190911790556006805491820181555f527ff652222313e28459528d920b65115c16c04f3efc82aaedc97be59f3f377c0d3f0161077b848683612ae7565b507f4b8dc734f768d1bd3535d71d3f6592619b0894153f2fd49363f4ffc9d88a23c68484846040516107af93929190612bc8565b60405180910390a150505050565b336001600160a01b037f000000000000000000000000000000000000000000000000000000000000000016146108065760405163c6829f8360e01b815260040160405180910390fd5b6108118383836117b6565b60405183907f85e1543bf2f84fe80c6badbce3648c8539ad1df4d2b3d822938ca0538be727e6905f90a2505050565b5f8281526020819052604090206001015461085a816117ac565b6108648383611937565b50505050565b6001600160a01b03811633146108935760405163334bd91960e11b815260040160405180910390fd5b61089d82826119c6565b505050565b5f5160206131095f395f51905f526108b9816117ac565b6003849055600480546001600160401b038581166bffffffffffffffffffffffff1990921691909117600160401b63ffffffff86811682029290921793849055604080518981529385166020850152930416918101919091527f6f19e60df9aeffb9631151f82202b0ed3be2680a15a8e8a1988bba32adde22bb906060016107af565b6008818154811061094b575f80fd5b5f91825260209091200154905081565b5f5160206131095f395f51905f52610972816117ac565b61097a611a2f565b50565b60076020525f90815260409020805460018201805491929161099e906129aa565b80601f01602080910402602001604051908101604052809291908181526020018280546109ca906129aa565b8015610a155780601f106109ec57610100808354040283529160200191610a15565b820191905f5260205f20905b8154815290600101906020018083116109f857829003601f168201915b50505050600283015460039093015491929160ff16905084565b5f5160206131095f395f51905f52610a46816117ac565b60058484604051610a5892919061299b565b9081526040519081900360200190206003015460ff16610a8f57838360405163be2cdf2560e01b81526004016105bb929190612beb565b815f03610ab2576040516309f9112f60e01b8152600481018390526024016105bb565b8160058585604051610ac592919061299b565b9081526020016040518091039020600201819055507f9891a4080547cb6c8ec7619bee0381385a5dfe593649b77a25904dbc131eea938484846040516107af93929190612bc8565b5f610b16611a81565b610b1e611aa7565b5f5160206131095f395f51905f52610b35816117ac565b60058484604051610b4792919061299b565b9081526040519081900360200190206003015460ff16610b7e57838360405163be2cdf2560e01b81526004016105bb929190612beb565b604051636d75b50d60e01b81526001600160a01b037f00000000000000000000000000000000000000000000000000000000000000001690636d75b50d90610bd4908d908d908d908d908d908d90600401612bfe565b6020604051808303815f875af1158015610bf0573d5f5f3e3d5ffd5b505050506040513d601f19601f82011682018060405250810190610c149190612c4c565b915060058484604051610c2892919061299b565b9081526040519081900360200190206001018054905f610c4783612c77565b9190505550817ff74d719373c5f9aec063520c34089b0a2e2c6350ded7bb6466baeeb4dd320288858533604051610c8093929190612c8f565b60405180910390a27f1c444e017654715fccab77e5228fc881bcf4ac4f0dec1775a9934cbe75adeedf848460058787604051610cbd92919061299b565b90815260405190819003602001812060010154610cdb939291612bc8565b60405180910390a150610cee6001600255565b98975050505050505050565b5f5160206131095f395f51905f52610d11816117ac565b61097a611acf565b5f60058383604051610d2c92919061299b565b908152602001604051809103902060010154905092915050565b5f918252602082815260408084206001600160a01b0393909316845291905290205460ff1690565b5f610d77611a81565b600582604051610d879190612cba565b9081526040519081900360200190206003015460ff16610dbc578160405163be2cdf2560e01b81526004016105bb91906128af565b610dfa6040805160e08101909152805f81526020015f81526020015f8152602001606081526020016060815260200160608152602001606081525090565b610e20604051806101c0016040528061019b8152602001612f6e61019b91398290611b0a565b6040805160018082528183019092525f91816020015b6060815260200190600190039081610e3657905050905083815f81518110610e6057610e60612cd0565b6020908102919091010152610e758282611b16565b610ea5610e8183611b3f565b6004546003546001600160401b03821691600160401b900463ffffffff1690611e03565b60408051608081018252828152602080820188815242838501525f606084018190528581526007909252929020815181559151929550916001820190610eeb9082612a2d565b5060408281015160028301556060909201516003909101805460ff1916911515919091179055600880546001810182555f919091527ff3f7a9fe364faab93b216da50a3214154f22a0a2b415b23a84c8169e8b636ee3018490555183907f7e1fda83958668384035c5124eaf021a683267ff9b7066127cdf0e6f3f3af39a90610f759087906128af565b60405180910390a250505b919050565b5f610f8f816117ac565b61089d5f516020612f4e5f395f51905f52836119c6565b610fd06040518060800160405280606081526020015f81526020015f81526020015f151581525090565b60058383604051610fe292919061299b565b90815260200160405180910390206040518060800160405290815f8201805461100a906129aa565b80601f0160208091040260200160405190810160405280929190818152602001828054611036906129aa565b80156110815780601f1061105857610100808354040283529160200191611081565b820191905f5260205f20905b81548152906001019060200180831161106457829003601f168201915b5050509183525050600182015460208201526002820154604082015260039091015460ff1615156060909101529392505050565b5f6110bf816117ac565b61089d5f516020612f4e5f395f51905f5283611937565b600681815481106110e5575f80fd5b905f5260205f20015f9150905080546110fd906129aa565b80601f0160208091040260200160405190810160405280929190818152602001828054611129906129aa565b80156111745780601f1061114b57610100808354040283529160200191611174565b820191905f5260205f20905b81548152906001019060200180831161115757829003601f168201915b505050505081565b5f82815260208190526040902060010154611196816117ac565b61086483836119c6565b60606006805480602002602001604051908101604052809291908181526020015f905b8282101561126b578382905f5260205f200180546111e0906129aa565b80601f016020809104026020016040519081016040528092919081815260200182805461120c906129aa565b80156112575780601f1061122e57610100808354040283529160200191611257565b820191905f5260205f20905b81548152906001019060200180831161123a57829003601f168201915b5050505050815260200190600101906111c3565b50505050905090565b5f61127d611a81565b611285611aa7565b5f516020612f4e5f395f51905f5261129c816117ac565b600584846040516112ae92919061299b565b9081526040519081900360200190206003015460ff166112e557838360405163be2cdf2560e01b81526004016105bb929190612beb565b604051633475e1e760e11b81526001600160a01b037f000000000000000000000000000000000000000000000000000000000000000016906368ebc3ce9061133b908d908d908d908d908d908d90600401612bfe565b6020604051808303815f875af1158015611357573d5f5f3e3d5ffd5b505050506040513d601f19601f8201168201806040525081019061137b9190612c4c565b91506005848460405161138f92919061299b565b9081526040519081900360200190206001018054905f6113ae83612c77565b9190505550817ff74d719373c5f9aec063520c34089b0a2e2c6350ded7bb6466baeeb4dd320288858530604051610c8093929190612c8f565b61141160405180608001604052805f8152602001606081526020015f81526020015f151581525090565b60075f8381526020019081526020015f206040518060800160405290815f8201548152602001600182018054611446906129aa565b80601f0160208091040260200160405190810160405280929190818152602001828054611472906129aa565b80156114bd5780601f10611494576101008083540402835291602001916114bd565b820191905f5260205f20905b8154815290600101906020018083116114a057829003601f168201915b50505091835250506002820154602082015260039091015460ff16151560409091015292915050565b5f6005826040516114f79190612cba565b908152604051908190036020019020600381015490915060ff168015611524575080600201548160010154105b156115325761089d82610d6e565b5050565b5f5f5160206131095f395f51905f5261154e816117ac565b61158c84848080601f0160208091040260200160405190810160405280939291908181526020018383808284375f92019190915250610d6e92505050565b949350505050565b5f5160206131095f395f51905f526115ab816117ac565b600583836040516115bd92919061299b565b9081526040519081900360200190206003015460ff166115f457828260405163be2cdf2560e01b81526004016105bb929190612beb565b5f6005848460405161160792919061299b565b908152602001604051809103902060010154111561089d576005838360405161163192919061299b565b9081526040519081900360200190206001018054905f61165083612ce4565b91905055507f1c444e017654715fccab77e5228fc881bcf4ac4f0dec1775a9934cbe75adeedf83836005868660405161168a92919061299b565b908152604051908190036020018120600101546116a8939291612bc8565b60405180910390a161089d83838080601f0160208091040260200160405190810160405280939291908181526020018383808284375f920191909152506114e692505050565b8051602081830181018051600582529282019190930120915280548190611714906129aa565b80601f0160208091040260200160405190810160405280929190818152602001828054611740906129aa565b801561178b5780601f106117625761010080835404028352916020019161178b565b820191905f5260205f20905b81548152906001019060200180831161176e57829003601f168201915b50505050600183015460028401546003909401549293909290915060ff1684565b61097a8133611ed0565b5f838152600760205260409020805484146117e757604051630d1c383160e11b8152600481018590526024016105bb565b600381015460ff16156118105760405163511f5e1d60e11b8152600481018590526024016105bb565b60038101805460ff191660011790555f5b6008548110156118c557846008828154811061183f5761183f612cd0565b905f5260205f200154036118bd576008805461185d90600190612cf9565b8154811061186d5761186d612cd0565b905f5260205f2001546008828154811061188957611889612cd0565b5f9182526020909120015560088054806118a5576118a5612d0c565b600190038181905f5260205f20015f905590556118c5565b600101611821565b508151156118d35750505050565b82515f036118f45760405163d978a2c960e01b815260040160405180910390fd5b837f92885b7a14b29e0bb9acbc42552e4010545fd8faa60f755c3acd5026fa370f8a8260010185604051611929929190612d20565b60405180910390a250505050565b5f6119428383610d46565b6119bf575f838152602081815260408083206001600160a01b03861684529091529020805460ff191660011790556119773390565b6001600160a01b0316826001600160a01b0316847f2f8788117e7eff1d82e926ec794901d17c78024a50270940304540a733656f0d60405160405180910390a450600161055f565b505f61055f565b5f6119d18383610d46565b156119bf575f838152602081815260408083206001600160a01b0386168085529252808320805460ff1916905551339286917ff6391f5c32d9c69d2a47ea670b442974b53935d1edc7fd64eb21e047a839171b9190a450600161055f565b611a37611f09565b6001805460ff191690557f5db9ee0a495bf2e6ff9c91a7834c1ba4fdd244a5e8aa4e537bd38aeae4b073aa335b6040516001600160a01b03909116815260200160405180910390a1565b60015460ff1615611aa55760405163d93c066560e01b815260040160405180910390fd5b565b6002805403611ac957604051633ee5aeb560e01b815260040160405180910390fd5b60028055565b611ad7611a81565b6001805460ff1916811790557f62e78cea01bee320cd4e420270b5ea74000d11b0c9f74754ebdbfc544b05a25833611a64565b611532825f5f84611f2c565b80515f03611b375760405163fe936cb760e01b815260040160405180910390fd5b60a090910152565b60605f611b4d610100611fa9565b9050611b866040518060400160405280600c81526020016b31b7b232a637b1b0ba34b7b760a11b81525082611fc990919063ffffffff16565b8251611ba4906002811115611b9d57611b9d612dba565b8290611fe2565b6040805180820190915260088152676c616e677561676560c01b6020820152611bce908290611fc9565b6040830151611be5908015611b9d57611b9d612dba565b604080518082019091526006815265736f7572636560d01b6020820152611c0d908290611fc9565b6060830151611c1d908290611fc9565b60a08301515115611ca8576040805180820190915260048152636172677360e01b6020820152611c4e908290611fc9565b611c578161201b565b5f5b8360a0015151811015611c9e57611c968460a001518281518110611c7f57611c7f612cd0565b602002602001015183611fc990919063ffffffff16565b600101611c59565b50611ca88161203f565b60808301515115611d6b575f83602001516002811115611cca57611cca612dba565b03611ce85760405163a80d31f760e01b815260040160405180910390fd5b60408051808201909152600f81526e39b2b1b932ba39a637b1b0ba34b7b760891b6020820152611d19908290611fc9565b611d3283602001516002811115611b9d57611b9d612dba565b6040805180820190915260078152667365637265747360c81b6020820152611d5b908290611fc9565b6080830151611d6b90829061205d565b60c08301515115611dfb5760408051808201909152600981526862797465734172677360b81b6020820152611da1908290611fc9565b611daa8161201b565b5f5b8360c0015151811015611df157611de98460c001518281518110611dd257611dd2612cd0565b60200260200101518361205d90919063ffffffff16565b600101611dac565b50611dfb8161203f565b515192915050565b5f5f7f00000000000000000000000000000000000000000000000000000000000000006001600160a01b031663461d27628688600188886040518663ffffffff1660e01b8152600401611e5a959493929190612dce565b6020604051808303815f875af1158015611e76573d5f5f3e3d5ffd5b505050506040513d601f19601f82011682018060405250810190611e9a9190612c4c565b60405190915081907f1131472297a800fee664d1d89cfa8f7676ff07189ecc53f80bbb5f4969099db8905f90a295945050505050565b611eda8282610d46565b6115325760405163e2517d3f60e01b81526001600160a01b0382166004820152602481018390526044016105bb565b60015460ff16611aa557604051638dfc202b60e01b815260040160405180910390fd5b80515f03611f4d576040516322ce3edd60e01b815260040160405180910390fd5b83836002811115611f6057611f60612dba565b90816002811115611f7357611f73612dba565b90525060408401828015611f8957611f89612dba565b90818015611f9957611f99612dba565b9052506060909301929092525050565b611fb1612401565b8051611fbd908361206a565b505f6020820152919050565b611fd682600383516120de565b815161089d90826121f7565b8151611fef9060c261221e565b50611532828260405160200161200791815260200190565b60405160208183030381529060405261205d565b612026816004612285565b6001816020018181516120399190612e16565b90525050565b61204a816007612285565b6001816020018181516120399190612cf9565b611fd682600283516120de565b60408051808201909152606081525f6020820152612089602083612e29565b156120b157612099602083612e29565b6120a4906020612cf9565b6120ae9083612e16565b91505b60208084018390526040518085525f81529081840101818110156120d3575f5ffd5b604052509192915050565b6017816001600160401b0316116121045782516108649060e0600585901b16831761221e565b60ff816001600160401b03161161214457825161212c906018611fe0600586901b161761221e565b508251610864906001600160401b038316600161229c565b61ffff816001600160401b03161161218557825161216d906019611fe0600586901b161761221e565b508251610864906001600160401b038316600261229c565b63ffffffff816001600160401b0316116121c85782516121b090601a611fe0600586901b161761221e565b508251610864906001600160401b038316600461229c565b82516121df90601b611fe0600586901b161761221e565b508251610864906001600160401b038316600861229c565b60408051808201909152606081525f60208201526122178383845161231e565b9392505050565b60408051808201909152606081525f60208201528251515f612241826001612e16565b905084602001518210612262576122628561225d836002612e48565b6123ea565b845160208382010185815350805182111561227b578181525b5093949350505050565b815161089d90601f611fe0600585901b161761221e565b60408051808201909152606081525f60208201528351515f6122be8285612e16565b905085602001518111156122db576122db8661225d836002612e48565b5f60016122ea86610100612f42565b6122f49190612cf9565b90508651828101878319825116178152508051831115612312578281525b50959695505050505050565b60408051808201909152606081525f6020820152825182111561233f575f5ffd5b8351515f61234d8483612e16565b9050856020015181111561236a5761236a8661225d836002612e48565b85518051838201602001915f9180851115612383578482525b505050602086015b602086106123c357805182526123a2602083612e16565b91506123af602082612e16565b90506123bc602087612cf9565b955061238b565b5181515f1960208890036101000a0190811690199190911617905250849150509392505050565b81516123f6838361206a565b5061086483826121f7565b60405180604001604052806124286040518060400160405280606081526020015f81525090565b81526020015f81525090565b5f60208284031215612444575f5ffd5b81356001600160e01b031981168114612217575f5ffd5b5f5f83601f84011261246b575f5ffd5b5081356001600160401b03811115612481575f5ffd5b602083019150836020828501011115612498575f5ffd5b9250929050565b5f5f5f604084860312156124b1575f5ffd5b83356001600160401b038111156124c6575f5ffd5b6124d28682870161245b565b909790965060209590950135949350505050565b634e487b7160e01b5f52604160045260245ffd5b5f5f6001600160401b03841115612513576125136124e6565b50604051601f19601f85018116603f011681018181106001600160401b0382111715612541576125416124e6565b604052838152905080828401851015612558575f5ffd5b838360208301375f60208583010152509392505050565b5f82601f83011261257e575f5ffd5b612217838335602085016124fa565b5f5f5f6060848603121561259f575f5ffd5b8335925060208401356001600160401b038111156125bb575f5ffd5b6125c78682870161256f565b92505060408401356001600160401b038111156125e2575f5ffd5b6125ee8682870161256f565b9150509250925092565b5f60208284031215612608575f5ffd5b5035919050565b80356001600160a01b0381168114610f80575f5ffd5b5f5f60408385031215612636575f5ffd5b823591506126466020840161260f565b90509250929050565b5f5f5f60608486031215612661575f5ffd5b8335925060208401356001600160401b038116811461267e575f5ffd5b9150604084013563ffffffff81168114612696575f5ffd5b809150509250925092565b5f81518084528060208401602086015e5f602082860101526020601f19601f83011685010191505092915050565b848152608060208201525f6126e760808301866126a1565b60408301949094525090151560609091015292915050565b5f5f5f5f5f5f5f5f60a0898b031215612716575f5ffd5b88356001600160401b0381111561272b575f5ffd5b6127378b828c0161256f565b98505060208901356001600160401b03811115612752575f5ffd5b61275e8b828c0161245b565b90985096505060408901356001600160401b0381111561277c575f5ffd5b6127888b828c0161245b565b9096509450506060890135925060808901356001600160401b038111156127ad575f5ffd5b6127b98b828c0161245b565b999c989b5096995094979396929594505050565b5f5f602083850312156127de575f5ffd5b82356001600160401b038111156127f3575f5ffd5b6127ff8582860161245b565b90969095509350505050565b5f6020828403121561281b575f5ffd5b81356001600160401b03811115612830575f5ffd5b8201601f81018413612840575f5ffd5b61158c848235602084016124fa565b5f6020828403121561285f575f5ffd5b6122178261260f565b602081525f82516080602084015261288360a08401826126a1565b905060208401516040840152604084015160608401526060840151151560808401528091505092915050565b602081525f61221760208301846126a1565b5f602082016020835280845180835260408501915060408160051b8601019250602086015f5b8281101561291857603f198786030184526129038583516126a1565b945060209384019391909101906001016128e7565b50929695505050505050565b60208152815160208201525f60208301516080604084015261294960a08401826126a1565b9050604084015160608401526060840151151560808401528091505092915050565b608081525f61297d60808301876126a1565b60208301959095525060408101929092521515606090910152919050565b818382375f9101908152919050565b600181811c908216806129be57607f821691505b6020821081036129dc57634e487b7160e01b5f52602260045260245ffd5b50919050565b601f82111561089d57805f5260205f20601f840160051c81016020851015612a075750805b601f840160051c820191505b81811015612a26575f8155600101612a13565b5050505050565b81516001600160401b03811115612a4657612a466124e6565b612a5a81612a5484546129aa565b846129e2565b6020601f821160018114612a8c575f8315612a755750848201515b5f19600385901b1c1916600184901b178455612a26565b5f84815260208120601f198516915b82811015612abb5787850151825560209485019460019092019101612a9b565b5084821015612ad857868401515f19600387901b60f8161c191681555b50505050600190811b01905550565b6001600160401b03831115612afe57612afe6124e6565b612b1283612b0c83546129aa565b836129e2565b5f601f841160018114612b43575f8515612b2c5750838201355b5f19600387901b1c1916600186901b178355612a26565b5f83815260208120601f198716915b82811015612b725786850135825560209485019460019092019101612b52565b5086821015612b8e575f1960f88860031b161c19848701351681555b505060018560011b0183555050505050565b81835281816020850137505f828201602090810191909152601f909101601f19169091010190565b604081525f612bdb604083018587612ba0565b9050826020830152949350505050565b602081525f61158c602083018486612ba0565b608081525f612c1060808301896126a1565b8281036020840152612c2381888a612ba0565b90508281036040840152612c38818688612ba0565b915050826060830152979650505050505050565b5f60208284031215612c5c575f5ffd5b5051919050565b634e487b7160e01b5f52601160045260245ffd5b5f60018201612c8857612c88612c63565b5060010190565b604081525f612ca2604083018587612ba0565b905060018060a01b0383166020830152949350505050565b5f82518060208501845e5f920191825250919050565b634e487b7160e01b5f52603260045260245ffd5b5f81612cf257612cf2612c63565b505f190190565b8181038181111561055f5761055f612c63565b634e487b7160e01b5f52603160045260245ffd5b604081525f5f8454612d31816129aa565b806040860152600182165f8114612d4f5760018114612d6b57612d9c565b60ff1983166060870152606082151560051b8701019350612d9c565b875f5260205f205f5b83811015612d9357815488820160600152600190910190602001612d74565b87016060019450505b5050508281036020840152612db181856126a1565b95945050505050565b634e487b7160e01b5f52602160045260245ffd5b6001600160401b038616815260a060208201525f612def60a08301876126a1565b61ffff9590951660408301525063ffffffff92909216606083015260809091015292915050565b8082018082111561055f5761055f612c63565b5f82612e4357634e487b7160e01b5f52601260045260245ffd5b500690565b808202811582820484141761055f5761055f612c63565b6001815b6001841115612e9a57808504811115612e7e57612e7e612c63565b6001841615612e8c57908102905b60019390931c928002612e63565b935093915050565b5f82612eb05750600161055f565b81612ebc57505f61055f565b8160018114612ed25760028114612edc57612ef8565b600191505061055f565b60ff841115612eed57612eed612c63565b50506001821b61055f565b5060208310610133831016604e8410600b8410161715612f1b575081810a61055f565b612f275f198484612e5f565b805f1904821115612f3a57612f3a612c63565b029392505050565b5f6122178383612ea256fe25cf2b509f2a7f322675b2a5322b182f44ad2c03ac941a0af17c9b178f5d5d5f636f6e73742063617465676f7279203d20617267735b305d3b636f6e73742061706955726c203d2060687474703a2f2f31332e3233352e3136342e34373a383038312f726573746f636b3f63617465676f72793d247b63617465676f72797d603b636f6e737420726573746f636b52657175657374203d2046756e6374696f6e732e6d616b654874747052657175657374287b202075726c3a2061706955726c2c20206d6574686f643a2027474554272c2020686561646572733a207b2020202027436f6e74656e742d54797065273a20276170706c69636174696f6e2f6a736f6e2720207d7d293b636f6e737420726573746f636b526573706f6e7365203d20617761697420726573746f636b526571756573743b69662028726573746f636b526573706f6e73652e6572726f7229207b20207468726f77204572726f7228274150492072657175657374206661696c656427293b7d72657475726e2046756e6374696f6e732e656e636f6465537472696e67284a534f4e2e737472696e6769667928726573746f636b526573706f6e73652e6461746129293ba49807205ce4d355092ef5a8a18f56e8913cf4a201fbe287825b095693c21775a2646970667358221220bfca92de46392e8013d05c91366de54361de6a6f203fce7349b251081647d08264736f6c634300081c0033",
  "linkReferences": {},
  "deployedLinkReferences": {}
}